{
  "contractName": "Auction",
  "abi": [
    {
      "inputs": [],
      "payable": false,
      "stateMutability": "nonpayable",
      "type": "constructor"
    },
    {
      "constant": true,
      "inputs": [],
      "name": "beneficiary",
      "outputs": [
        {
          "internalType": "address payable",
          "name": "",
          "type": "address"
        }
      ],
      "payable": false,
      "stateMutability": "view",
      "type": "function"
    },
    {
      "constant": true,
      "inputs": [],
      "name": "highestBid",
      "outputs": [
        {
          "internalType": "uint256",
          "name": "",
          "type": "uint256"
        }
      ],
      "payable": false,
      "stateMutability": "view",
      "type": "function"
    },
    {
      "constant": true,
      "inputs": [],
      "name": "highestBidder",
      "outputs": [
        {
          "internalType": "address",
          "name": "",
          "type": "address"
        }
      ],
      "payable": false,
      "stateMutability": "view",
      "type": "function"
    },
    {
      "constant": true,
      "inputs": [],
      "name": "isAuctionComplete",
      "outputs": [
        {
          "internalType": "bool",
          "name": "",
          "type": "bool"
        }
      ],
      "payable": false,
      "stateMutability": "view",
      "type": "function"
    },
    {
      "constant": false,
      "inputs": [],
      "name": "bid",
      "outputs": [],
      "payable": true,
      "stateMutability": "payable",
      "type": "function"
    },
    {
      "constant": false,
      "inputs": [],
      "name": "withdraw",
      "outputs": [
        {
          "internalType": "bool",
          "name": "",
          "type": "bool"
        }
      ],
      "payable": false,
      "stateMutability": "nonpayable",
      "type": "function"
    },
    {
      "constant": false,
      "inputs": [],
      "name": "auctionEnd",
      "outputs": [],
      "payable": false,
      "stateMutability": "nonpayable",
      "type": "function"
    }
  ],
  "bytecode": "0x608060405234801561001057600080fd5b50336000806101000a81548173ffffffffffffffffffffffffffffffffffffffff021916908373ffffffffffffffffffffffffffffffffffffffff1602179055506000600460006101000a81548160ff0219169083151502179055506109a48061007b6000396000f3fe6080604052600436106100705760003560e01c80633ccfd60b1161004e5780633ccfd60b146100ed57806350c74e4b1461011c57806391f901571461014b578063d57bde79146101a257610070565b80631998aeef146100755780632a24f46c1461007f57806338af3eed14610096575b600080fd5b61007d6101cd565b005b34801561008b57600080fd5b50610094610487565b005b3480156100a257600080fd5b506100ab61064a565b604051808273ffffffffffffffffffffffffffffffffffffffff1673ffffffffffffffffffffffffffffffffffffffff16815260200191505060405180910390f35b3480156100f957600080fd5b5061010261066f565b604051808215151515815260200191505060405180910390f35b34801561012857600080fd5b50610131610845565b604051808215151515815260200191505060405180910390f35b34801561015757600080fd5b50610160610858565b604051808273ffffffffffffffffffffffffffffffffffffffff1673ffffffffffffffffffffffffffffffffffffffff16815260200191505060405180910390f35b3480156101ae57600080fd5b506101b761087e565b6040518082815260200191505060405180910390f35b60001515600460009054906101000a900460ff16151514610256576040517f08c379a000000000000000000000000000000000000000000000000000000000815260040180806020018281038252601a8152602001807f41756374696f6e206973206e6f206c6f6e676572206c6976652e00000000000081525060200191505060405180910390fd5b600034116102af576040517f08c379a00000000000000000000000000000000000000000000000000000000081526004018080602001828103825260248152602001806108ab6024913960400191505060405180910390fd5b6000809054906101000a900473ffffffffffffffffffffffffffffffffffffffff1673ffffffffffffffffffffffffffffffffffffffff163373ffffffffffffffffffffffffffffffffffffffff161415610372576040517f08c379a00000000000000000000000000000000000000000000000000000000081526004018080602001828103825260178152602001807f42656e65666963696172792063616e6e6f74206269642e00000000000000000081525060200191505060405180910390fd5b60025434116103cc576040517f08c379a00000000000000000000000000000000000000000000000000000000081526004018080602001828103825260348152602001806108f96034913960400191505060405180910390fd5b60025460036000600160009054906101000a900473ffffffffffffffffffffffffffffffffffffffff1673ffffffffffffffffffffffffffffffffffffffff1673ffffffffffffffffffffffffffffffffffffffff1681526020019081526020016000206000828254019250508190555033600160006101000a81548173ffffffffffffffffffffffffffffffffffffffff021916908373ffffffffffffffffffffffffffffffffffffffff16021790555034600281905550565b60001515600460009054906101000a900460ff16151514610510576040517f08c379a00000000000000000000000000000000000000000000000000000000081526004018080602001828103825260158152602001807f41756374696f6e20616c726561647920656e646564000000000000000000000081525060200191505060405180910390fd5b6000809054906101000a900473ffffffffffffffffffffffffffffffffffffffff1673ffffffffffffffffffffffffffffffffffffffff163373ffffffffffffffffffffffffffffffffffffffff16146105b5576040517f08c379a00000000000000000000000000000000000000000000000000000000081526004018080602001828103825260268152602001806108856026913960400191505060405180910390fd5b6000600254905060006002819055506001600460006101000a81548160ff0219169083151502179055506000809054906101000a900473ffffffffffffffffffffffffffffffffffffffff1673ffffffffffffffffffffffffffffffffffffffff166108fc829081150290604051600060405180830381858888f19350505050158015610646573d6000803e3d6000fd5b5050565b6000809054906101000a900473ffffffffffffffffffffffffffffffffffffffff1681565b60008060009054906101000a900473ffffffffffffffffffffffffffffffffffffffff1673ffffffffffffffffffffffffffffffffffffffff163373ffffffffffffffffffffffffffffffffffffffff161415610717576040517f08c379a000000000000000000000000000000000000000000000000000000000815260040180806020018281038252604381526020018061092d6043913960600191505060405180910390fd5b6000600360003373ffffffffffffffffffffffffffffffffffffffff1673ffffffffffffffffffffffffffffffffffffffff1681526020019081526020016000205490506000600360003373ffffffffffffffffffffffffffffffffffffffff1673ffffffffffffffffffffffffffffffffffffffff16815260200190815260200160002081905550600081116107f9576040517f08c379a000000000000000000000000000000000000000000000000000000000815260040180806020018281038252602a8152602001806108cf602a913960400191505060405180910390fd5b3373ffffffffffffffffffffffffffffffffffffffff166108fc829081150290604051600060405180830381858888f1935050505061083c576000915050610842565b60019150505b90565b600460009054906101000a900460ff1681565b600160009054906101000a900473ffffffffffffffffffffffffffffffffffffffff1681565b6002548156fe4f6e6c792062656e65666963696172792063616e207472696767657220617574696f6e456e64416d6f756e7420746f20626964206d7573742062652067726561746572207468616e2030416d6f756e7420697320616c72656164792077697468647261776e206279207468652073656e6465722e42696464696e6720616d6f756e742063616e6e6f74206265206c6f776572207468616e207468652068696768657374206269642e42656e65666963696172792063616e6e6f7420776974686472617720616d6f756e7420617320616d6f756e7420697320616c7265616479207472616e7366657265642ea265627a7a7231582092ab7b82d1291ff3c8319d455a0b78548bfa12c8356ea424c2164483d978e17564736f6c63430005100032",
  "source": "pragma solidity ^0.5.0;\n\ncontract Auction {\n    address payable public beneficiary;\n    address public highestBidder;\n    uint public highestBid;\n    mapping(address => uint) pendingReturns;\n    bool public isAuctionComplete;\n    // Constructor\n    constructor() public {\n        beneficiary = msg.sender;\n        isAuctionComplete = false;\n    }\n    /// Bid on the auction with the value sent\n    /// together with this transaction.\n    /// The value will only be refunded if the\n    /// auction is not won.\n    function bid() public payable {\n        // Check if auction is live.\n        require(isAuctionComplete==false,\"Auction is no longer live.\");\n        // Check for transaction amount is greater than 0.\n        require(msg.value>0,\"Amount to bid must be greater than 0\");\n        // Check if beneficiary is trying to bid.\n        require(msg.sender!=beneficiary,\"Beneficiary cannot bid.\");\n        // Check if the amount greater than highestBid\n        require(msg.value > highestBid, \"Bidding amount cannot be lower than the highest bid.\");\n        // Store previous highestBidder and highestBid in the pendingReturns.\n        pendingReturns[highestBidder] += highestBid;\n        // Update highest bidder and highest bid.\n        highestBidder = msg.sender;\n        highestBid = msg.value;\n    }\n\n    function withdraw() public returns (bool) {\n        // Check if beneficiary.\n        require(msg.sender != beneficiary,\"Beneficiary cannot withdraw amount as amount is already transfered.\");\n        uint pendingBidOfSender;\n        pendingBidOfSender = pendingReturns[msg.sender];\n        pendingReturns[msg.sender] = 0;\n        // Check if already withdrawn(avoid reEntrancy).\n        require(pendingBidOfSender > 0,\"Amount is already withdrawn by the sender.\");\n        // If sending success return true else retur false.\n        if (!msg.sender.send(pendingBidOfSender)){\n            return false;\n        }\n        return true;\n    }\n\n    /// End the auction and send the highest bid\n    /// to the beneficiary.\n    function auctionEnd() public {\n        // Check if auction is live.\n        require(isAuctionComplete == false, \"Auction already ended\");\n        // Only beneficiary can trigger autionEnd.\n        require(msg.sender == beneficiary,\"Only beneficiary can trigger autionEnd\");\n        uint highestBidAmount = highestBid;\n        highestBid = 0;\n        // Set auction to end.\n        isAuctionComplete = true;\n        // Transfer to the highest bid to beneficiary.\n        beneficiary.transfer(highestBidAmount);\n    }\n}",
  "sourcePath": "G:\\Masters\\Blockchain\\hw1-source\\contracts\\Auction.sol",
  "compiler": {
    "name": "solc",
    "version": "0.5.16+commit.9c3226ce.Emscripten.clang"
  },
  "schemaVersion": "3.0.23",
  "updatedAt": "2020-02-25T01:04:00.512Z",
  "networkType": "ethereum",
  "devdoc": {
    "methods": {}
  },
  "userdoc": {
    "methods": {
      "auctionEnd()": {
        "notice": "End the auction and send the highest bid to the beneficiary."
      },
      "bid()": {
        "notice": "Bid on the auction with the value sent together with this transaction. The value will only be refunded if the auction is not won."
      }
    }
  }
}