{
  "contractName": "CertiBlocks",
  "abi": [
    {
      "inputs": [],
      "payable": false,
      "stateMutability": "nonpayable",
      "type": "constructor"
    },
    {
      "constant": false,
      "inputs": [
        {
          "internalType": "address",
          "name": "addressOfAuthority",
          "type": "address"
        },
        {
          "internalType": "string",
          "name": "details",
          "type": "string"
        }
      ],
      "name": "AddNewIssuerAuthority",
      "outputs": [],
      "payable": false,
      "stateMutability": "nonpayable",
      "type": "function"
    },
    {
      "constant": false,
      "inputs": [
        {
          "internalType": "address",
          "name": "addressOfIssuer",
          "type": "address"
        },
        {
          "internalType": "string",
          "name": "details",
          "type": "string"
        }
      ],
      "name": "AddNewCertificateIssuer",
      "outputs": [],
      "payable": false,
      "stateMutability": "nonpayable",
      "type": "function"
    },
    {
      "constant": false,
      "inputs": [
        {
          "internalType": "address",
          "name": "addressOfRecepient",
          "type": "address"
        },
        {
          "internalType": "string",
          "name": "details",
          "type": "string"
        }
      ],
      "name": "AddNewReceiver",
      "outputs": [],
      "payable": false,
      "stateMutability": "nonpayable",
      "type": "function"
    },
    {
      "constant": false,
      "inputs": [
        {
          "internalType": "address",
          "name": "_recipient",
          "type": "address"
        },
        {
          "internalType": "string",
          "name": "_ipfsHash",
          "type": "string"
        },
        {
          "internalType": "string",
          "name": "_sha256Value",
          "type": "string"
        },
        {
          "internalType": "uint256",
          "name": "_expiryDate",
          "type": "uint256"
        },
        {
          "internalType": "string",
          "name": "_notes",
          "type": "string"
        }
      ],
      "name": "AddNewCertificate",
      "outputs": [],
      "payable": false,
      "stateMutability": "nonpayable",
      "type": "function"
    },
    {
      "constant": true,
      "inputs": [
        {
          "internalType": "string",
          "name": "_sha256Value",
          "type": "string"
        }
      ],
      "name": "getNotes",
      "outputs": [
        {
          "internalType": "string",
          "name": "",
          "type": "string"
        }
      ],
      "payable": false,
      "stateMutability": "view",
      "type": "function"
    },
    {
      "constant": true,
      "inputs": [
        {
          "internalType": "string",
          "name": "_sha256Value",
          "type": "string"
        }
      ],
      "name": "getExpiry",
      "outputs": [
        {
          "internalType": "uint256",
          "name": "",
          "type": "uint256"
        }
      ],
      "payable": false,
      "stateMutability": "view",
      "type": "function"
    },
    {
      "constant": true,
      "inputs": [
        {
          "internalType": "string",
          "name": "_sha256Value",
          "type": "string"
        }
      ],
      "name": "getID",
      "outputs": [
        {
          "internalType": "uint256",
          "name": "",
          "type": "uint256"
        }
      ],
      "payable": false,
      "stateMutability": "view",
      "type": "function"
    },
    {
      "constant": true,
      "inputs": [],
      "name": "getReceivedCertificates",
      "outputs": [
        {
          "internalType": "uint256[]",
          "name": "",
          "type": "uint256[]"
        }
      ],
      "payable": false,
      "stateMutability": "view",
      "type": "function"
    },
    {
      "constant": true,
      "inputs": [],
      "name": "getIssuedCertificates",
      "outputs": [
        {
          "internalType": "uint256[]",
          "name": "",
          "type": "uint256[]"
        }
      ],
      "payable": false,
      "stateMutability": "view",
      "type": "function"
    },
    {
      "constant": true,
      "inputs": [
        {
          "internalType": "address",
          "name": "_issuer",
          "type": "address"
        }
      ],
      "name": "getIssuerDetails",
      "outputs": [
        {
          "internalType": "string",
          "name": "",
          "type": "string"
        }
      ],
      "payable": false,
      "stateMutability": "view",
      "type": "function"
    },
    {
      "constant": true,
      "inputs": [
        {
          "internalType": "string",
          "name": "_sha256Value",
          "type": "string"
        }
      ],
      "name": "getIssuerDetails",
      "outputs": [
        {
          "internalType": "address",
          "name": "",
          "type": "address"
        }
      ],
      "payable": false,
      "stateMutability": "view",
      "type": "function"
    },
    {
      "constant": true,
      "inputs": [
        {
          "internalType": "string",
          "name": "_sha256Value",
          "type": "string"
        }
      ],
      "name": "getRecipientDetails",
      "outputs": [
        {
          "internalType": "address",
          "name": "",
          "type": "address"
        }
      ],
      "payable": false,
      "stateMutability": "view",
      "type": "function"
    },
    {
      "constant": true,
      "inputs": [
        {
          "internalType": "address",
          "name": "_recipient",
          "type": "address"
        }
      ],
      "name": "getRecipientDetails",
      "outputs": [
        {
          "internalType": "string",
          "name": "",
          "type": "string"
        }
      ],
      "payable": false,
      "stateMutability": "view",
      "type": "function"
    },
    {
      "constant": true,
      "inputs": [
        {
          "internalType": "uint256",
          "name": "_id",
          "type": "uint256"
        }
      ],
      "name": "getCertificateById",
      "outputs": [
        {
          "internalType": "string",
          "name": "",
          "type": "string"
        },
        {
          "internalType": "uint256",
          "name": "",
          "type": "uint256"
        },
        {
          "internalType": "address",
          "name": "",
          "type": "address"
        },
        {
          "internalType": "address",
          "name": "",
          "type": "address"
        },
        {
          "internalType": "string",
          "name": "",
          "type": "string"
        }
      ],
      "payable": false,
      "stateMutability": "view",
      "type": "function"
    },
    {
      "constant": true,
      "inputs": [
        {
          "internalType": "uint256",
          "name": "_id",
          "type": "uint256"
        }
      ],
      "name": "getCertificateIPFSHashById",
      "outputs": [
        {
          "internalType": "string",
          "name": "",
          "type": "string"
        }
      ],
      "payable": false,
      "stateMutability": "view",
      "type": "function"
    }
  ],
  "bytecode": "0x60806040523480156200001157600080fd5b5033600060405180807f696e697469616c000000000000000000000000000000000000000000000000008152506007019050908152602001604051809103902060006101000a81548173ffffffffffffffffffffffffffffffffffffffff021916908373ffffffffffffffffffffffffffffffffffffffff1602179055506001600a60003373ffffffffffffffffffffffffffffffffffffffff1673ffffffffffffffffffffffffffffffffffffffff16815260200190815260200160002060006101000a81548160ff0219169083151502179055506040518060400160405280600781526020017f696e697469616c00000000000000000000000000000000000000000000000000815250600560003373ffffffffffffffffffffffffffffffffffffffff1673ffffffffffffffffffffffffffffffffffffffff16815260200190815260200160002090805190602001906200017192919062000180565b5060016013819055506200022f565b828054600181600116156101000203166002900490600052602060002090601f016020900481019282601f10620001c357805160ff1916838001178555620001f4565b82800160010185558215620001f4579182015b82811115620001f3578251825591602001919060010190620001d6565b5b50905062000203919062000207565b5090565b6200022c91905b80821115620002285760008160009055506001016200020e565b5090565b90565b6132a4806200023f6000396000f3fe608060405234801561001057600080fd5b50600436106100f55760003560e01c8063998ee46c11610097578063bd7787ef11610066578063bd7787ef14610aa9578063d3451f7a14610cbc578063ef9b307f14610d97578063f2f42ce414610e66576100f5565b8063998ee46c146106765780639d735caf14610771578063aefcd409146108f1578063b9bd12e4146109ec576100f5565b8063602d3b72116100d3578063602d3b72146103685780636d3c86e91461040f57806370537f49146104ea57806370aca6c8146105a7576100f5565b80630746b7b2146100fa578063095f93ec1461022e57806336a7b9501461028d575b600080fd5b6101b36004803603602081101561011057600080fd5b810190808035906020019064010000000081111561012d57600080fd5b82018360208201111561013f57600080fd5b8035906020019184600183028401116401000000008311171561016157600080fd5b91908080601f016020809104026020016040519081016040528093929190818152602001838380828437600081840152601f19601f820116905080830192505050505050509192919290505050610ec5565b6040518080602001828103825283818151815260200191508051906020019080838360005b838110156101f35780820151818401526020810190506101d8565b50505050905090810190601f1680156102205780820380516001836020036101000a031916815260200191505b509250505060405180910390f35b6102366110a3565b6040518080602001828103825283818151815260200191508051906020019060200280838360005b8381101561027957808201518184015260208101905061025e565b505050509050019250505060405180910390f35b610366600480360360408110156102a357600080fd5b81019080803573ffffffffffffffffffffffffffffffffffffffff169060200190929190803590602001906401000000008111156102e057600080fd5b8201836020820111156102f257600080fd5b8035906020019184600183028401116401000000008311171561031457600080fd5b91908080601f016020809104026020016040519081016040528093929190818152602001838380828437600081840152601f19601f8201169050808301925050505050505091929192905050506111e1565b005b6103946004803603602081101561037e57600080fd5b810190808035906020019092919050505061143d565b6040518080602001828103825283818151815260200191508051906020019080838360005b838110156103d45780820151818401526020810190506103b9565b50505050905090810190601f1680156104015780820380516001836020036101000a031916815260200191505b509250505060405180910390f35b6104e86004803603604081101561042557600080fd5b81019080803573ffffffffffffffffffffffffffffffffffffffff1690602001909291908035906020019064010000000081111561046257600080fd5b82018360208201111561047457600080fd5b8035906020019184600183028401116401000000008311171561049657600080fd5b91908080601f016020809104026020016040519081016040528093929190818152602001838380828437600081840152601f19601f82011690508083019250505050505050919291929050505061154c565b005b61052c6004803603602081101561050057600080fd5b81019080803573ffffffffffffffffffffffffffffffffffffffff16906020019092919050505061174d565b6040518080602001828103825283818151815260200191508051906020019080838360005b8381101561056c578082015181840152602081019050610551565b50505050905090810190601f1680156105995780820380516001836020036101000a031916815260200191505b509250505060405180910390f35b610660600480360360208110156105bd57600080fd5b81019080803590602001906401000000008111156105da57600080fd5b8201836020820111156105ec57600080fd5b8035906020019184600183028401116401000000008311171561060e57600080fd5b91908080601f016020809104026020016040519081016040528093929190818152602001838380828437600081840152601f19601f8201169050808301925050505050505091929192905050506118d7565b6040518082815260200191505060405180910390f35b61072f6004803603602081101561068c57600080fd5b81019080803590602001906401000000008111156106a957600080fd5b8201836020820111156106bb57600080fd5b803590602001918460018302840111640100000000831117156106dd57600080fd5b91908080601f016020809104026020016040519081016040528093929190818152602001838380828437600081840152601f19601f820116905080830192505050505050509192919290505050611a1d565b604051808273ffffffffffffffffffffffffffffffffffffffff1673ffffffffffffffffffffffffffffffffffffffff16815260200191505060405180910390f35b61079d6004803603602081101561078757600080fd5b8101908080359060200190929190505050611b83565b60405180806020018681526020018573ffffffffffffffffffffffffffffffffffffffff1673ffffffffffffffffffffffffffffffffffffffff1681526020018473ffffffffffffffffffffffffffffffffffffffff1673ffffffffffffffffffffffffffffffffffffffff16815260200180602001838103835288818151815260200191508051906020019080838360005b8381101561084b578082015181840152602081019050610830565b50505050905090810190601f1680156108785780820380516001836020036101000a031916815260200191505b50838103825284818151815260200191508051906020019080838360005b838110156108b1578082015181840152602081019050610896565b50505050905090810190601f1680156108de5780820380516001836020036101000a031916815260200191505b5097505050505050505060405180910390f35b6109aa6004803603602081101561090757600080fd5b810190808035906020019064010000000081111561092457600080fd5b82018360208201111561093657600080fd5b8035906020019184600183028401116401000000008311171561095857600080fd5b91908080601f016020809104026020016040519081016040528093929190818152602001838380828437600081840152601f19601f820116905080830192505050505050509192919290505050611ee7565b604051808273ffffffffffffffffffffffffffffffffffffffff1673ffffffffffffffffffffffffffffffffffffffff16815260200191505060405180910390f35b610a2e60048036036020811015610a0257600080fd5b81019080803573ffffffffffffffffffffffffffffffffffffffff16906020019092919050505061204d565b6040518080602001828103825283818151815260200191508051906020019080838360005b83811015610a6e578082015181840152602081019050610a53565b50505050905090810190601f168015610a9b5780820380516001836020036101000a031916815260200191505b509250505060405180910390f35b610cba600480360360a0811015610abf57600080fd5b81019080803573ffffffffffffffffffffffffffffffffffffffff16906020019092919080359060200190640100000000811115610afc57600080fd5b820183602082011115610b0e57600080fd5b80359060200191846001830284011164010000000083111715610b3057600080fd5b91908080601f016020809104026020016040519081016040528093929190818152602001838380828437600081840152601f19601f82011690508083019250505050505050919291929080359060200190640100000000811115610b9357600080fd5b820183602082011115610ba557600080fd5b80359060200191846001830284011164010000000083111715610bc757600080fd5b91908080601f016020809104026020016040519081016040528093929190818152602001838380828437600081840152601f19601f8201169050808301925050505050505091929192908035906020019092919080359060200190640100000000811115610c3457600080fd5b820183602082011115610c4657600080fd5b80359060200191846001830284011164010000000083111715610c6857600080fd5b91908080601f016020809104026020016040519081016040528093929190818152602001838380828437600081840152601f19601f8201169050808301925050505050505091929192905050506121d7565b005b610d9560048036036040811015610cd257600080fd5b81019080803573ffffffffffffffffffffffffffffffffffffffff16906020019092919080359060200190640100000000811115610d0f57600080fd5b820183602082011115610d2157600080fd5b80359060200191846001830284011164010000000083111715610d4357600080fd5b91908080601f016020809104026020016040519081016040528093929190818152602001838380828437600081840152601f19601f8201169050808301925050505050505091929192905050506129fc565b005b610e5060048036036020811015610dad57600080fd5b8101908080359060200190640100000000811115610dca57600080fd5b820183602082011115610ddc57600080fd5b80359060200191846001830284011164010000000083111715610dfe57600080fd5b91908080601f016020809104026020016040519081016040528093929190818152602001838380828437600081840152601f19601f820116905080830192505050505050509192919290505050612bfd565b6040518082815260200191505060405180910390f35b610e6e612d43565b6040518080602001828103825283818151815260200191508051906020019060200280838360005b83811015610eb1578082015181840152602081019050610e96565b505050509050019250505060405180910390f35b606060011515600d836040518082805190602001908083835b60208310610f015780518252602082019150602081019050602083039250610ede565b6001836020036101000a038019825116818451168082178552505050505050905001915050908152602001604051809103902060009054906101000a900460ff16151514610f9a576040517f08c379a000000000000000000000000000000000000000000000000000000000815260040180806020018281038252602e81526020018061304f602e913960400191505060405180910390fd5b6010826040518082805190602001908083835b60208310610fd05780518252602082019150602081019050602083039250610fad565b6001836020036101000a03801982511681845116808217855250505050505090500191505090815260200160405180910390208054600181600116156101000203166002900480601f0160208091040260200160405190810160405280929190818152602001828054600181600116156101000203166002900480156110975780601f1061106c57610100808354040283529160200191611097565b820191906000526020600020905b81548152906001019060200180831161107a57829003601f168201915b50505050509050919050565b606060011515600b60003373ffffffffffffffffffffffffffffffffffffffff1673ffffffffffffffffffffffffffffffffffffffff16815260200190815260200160002060009054906101000a900460ff1615151461114e576040517f08c379a00000000000000000000000000000000000000000000000000000000081526004018080602001828103825260378152602001806130f16037913960400191505060405180910390fd5b600960003373ffffffffffffffffffffffffffffffffffffffff1673ffffffffffffffffffffffffffffffffffffffff1681526020019081526020016000208054806020026020016040519081016040528092919081815260200182805480156111d757602002820191906000526020600020905b8154815260200190600101908083116111c3575b5050505050905090565b60011515600a60003373ffffffffffffffffffffffffffffffffffffffff1673ffffffffffffffffffffffffffffffffffffffff16815260200190815260200160002060009054906101000a900460ff1615151480611290575060011515600b60003373ffffffffffffffffffffffffffffffffffffffff1673ffffffffffffffffffffffffffffffffffffffff16815260200190815260200160002060009054906101000a900460ff161515145b6112e5576040517f08c379a000000000000000000000000000000000000000000000000000000000815260040180806020018281038252603f815260200180613010603f913960400191505060405180910390fd5b816002826040518082805190602001908083835b6020831061131c57805182526020820191506020810190506020830392506112f9565b6001836020036101000a038019825116818451168082178552505050505050905001915050908152602001604051809103902060006101000a81548173ffffffffffffffffffffffffffffffffffffffff021916908373ffffffffffffffffffffffffffffffffffffffff1602179055506001600c60008473ffffffffffffffffffffffffffffffffffffffff1673ffffffffffffffffffffffffffffffffffffffff16815260200190815260200160002060006101000a81548160ff02191690831515021790555080600460008473ffffffffffffffffffffffffffffffffffffffff1673ffffffffffffffffffffffffffffffffffffffff1681526020019081526020016000209080519060200190611438929190612e81565b505050565b60608160135411611499576040517f08c379a000000000000000000000000000000000000000000000000000000000815260040180806020018281038252602e81526020018061304f602e913960400191505060405180910390fd5b600760008381526020019081526020016000208054600181600116156101000203166002900480601f0160208091040260200160405190810160405280929190818152602001828054600181600116156101000203166002900480156115405780601f1061151557610100808354040283529160200191611540565b820191906000526020600020905b81548152906001019060200180831161152357829003601f168201915b50505050509050919050565b60011515600a60003373ffffffffffffffffffffffffffffffffffffffff1673ffffffffffffffffffffffffffffffffffffffff16815260200190815260200160002060009054906101000a900460ff161515146115f5576040517f08c379a000000000000000000000000000000000000000000000000000000000815260040180806020018281038252604181526020018061307d6041913960600191505060405180910390fd5b816000826040518082805190602001908083835b6020831061162c5780518252602082019150602081019050602083039250611609565b6001836020036101000a038019825116818451168082178552505050505050905001915050908152602001604051809103902060006101000a81548173ffffffffffffffffffffffffffffffffffffffff021916908373ffffffffffffffffffffffffffffffffffffffff1602179055506001600a60008473ffffffffffffffffffffffffffffffffffffffff1673ffffffffffffffffffffffffffffffffffffffff16815260200190815260200160002060006101000a81548160ff02191690831515021790555080600560008473ffffffffffffffffffffffffffffffffffffffff1673ffffffffffffffffffffffffffffffffffffffff1681526020019081526020016000209080519060200190611748929190612e81565b505050565b606060011515600b60008473ffffffffffffffffffffffffffffffffffffffff1673ffffffffffffffffffffffffffffffffffffffff16815260200190815260200160002060009054906101000a900460ff161515146117f8576040517f08c379a00000000000000000000000000000000000000000000000000000000081526004018080602001828103825260248152602001806131286024913960400191505060405180910390fd5b600360008373ffffffffffffffffffffffffffffffffffffffff1673ffffffffffffffffffffffffffffffffffffffff1681526020019081526020016000208054600181600116156101000203166002900480601f0160208091040260200160405190810160405280929190818152602001828054600181600116156101000203166002900480156118cb5780601f106118a0576101008083540402835291602001916118cb565b820191906000526020600020905b8154815290600101906020018083116118ae57829003601f168201915b50505050509050919050565b600060011515600d836040518082805190602001908083835b6020831061191357805182526020820191506020810190506020830392506118f0565b6001836020036101000a038019825116818451168082178552505050505050905001915050908152602001604051809103902060009054906101000a900460ff161515146119ac576040517f08c379a000000000000000000000000000000000000000000000000000000000815260040180806020018281038252602e81526020018061304f602e913960400191505060405180910390fd5b6012826040518082805190602001908083835b602083106119e257805182526020820191506020810190506020830392506119bf565b6001836020036101000a0380198251168184511680821785525050505050509050019150509081526020016040518091039020549050919050565b600060011515600d836040518082805190602001908083835b60208310611a595780518252602082019150602081019050602083039250611a36565b6001836020036101000a038019825116818451168082178552505050505050905001915050908152602001604051809103902060009054906101000a900460ff16151514611af2576040517f08c379a000000000000000000000000000000000000000000000000000000000815260040180806020018281038252602e81526020018061304f602e913960400191505060405180910390fd5b600f826040518082805190602001908083835b60208310611b285780518252602082019150602081019050602083039250611b05565b6001836020036101000a038019825116818451168082178552505050505050905001915050908152602001604051809103902060009054906101000a900473ffffffffffffffffffffffffffffffffffffffff169050919050565b6060600080600060608560135411611be6576040517f08c379a000000000000000000000000000000000000000000000000000000000815260040180806020018281038252602e81526020018061304f602e913960400191505060405180910390fd5b611bee612f01565b600660008881526020019081526020016000206040518060e0016040529081600082018054600181600116156101000203166002900480601f016020809104026020016040519081016040528092919081815260200182805460018160011615610100020316600290048015611ca55780601f10611c7a57610100808354040283529160200191611ca5565b820191906000526020600020905b815481529060010190602001808311611c8857829003601f168201915b50505050508152602001600182018054600181600116156101000203166002900480601f016020809104026020016040519081016040528092919081815260200182805460018160011615610100020316600290048015611d475780601f10611d1c57610100808354040283529160200191611d47565b820191906000526020600020905b815481529060010190602001808311611d2a57829003601f168201915b50505050508152602001600282015481526020016003820160009054906101000a900473ffffffffffffffffffffffffffffffffffffffff1673ffffffffffffffffffffffffffffffffffffffff1673ffffffffffffffffffffffffffffffffffffffff1681526020016004820160009054906101000a900473ffffffffffffffffffffffffffffffffffffffff1673ffffffffffffffffffffffffffffffffffffffff1673ffffffffffffffffffffffffffffffffffffffff168152602001600582018054600181600116156101000203166002900480601f016020809104026020016040519081016040528092919081815260200182805460018160011615610100020316600290048015611e9f5780601f10611e7457610100808354040283529160200191611e9f565b820191906000526020600020905b815481529060010190602001808311611e8257829003601f168201915b50505050508152602001600682015481525050905080602001518160c00151826060015183608001518460a00151849450809050955095509550955095505091939590929450565b600060011515600d836040518082805190602001908083835b60208310611f235780518252602082019150602081019050602083039250611f00565b6001836020036101000a038019825116818451168082178552505050505050905001915050908152602001604051809103902060009054906101000a900460ff16151514611fbc576040517f08c379a000000000000000000000000000000000000000000000000000000000815260040180806020018281038252602e81526020018061304f602e913960400191505060405180910390fd5b600e826040518082805190602001908083835b60208310611ff25780518252602082019150602081019050602083039250611fcf565b6001836020036101000a038019825116818451168082178552505050505050905001915050908152602001604051809103902060009054906101000a900473ffffffffffffffffffffffffffffffffffffffff169050919050565b606060011515600c60008473ffffffffffffffffffffffffffffffffffffffff1673ffffffffffffffffffffffffffffffffffffffff16815260200190815260200160002060009054906101000a900460ff161515146120f8576040517f08c379a00000000000000000000000000000000000000000000000000000000081526004018080602001828103825260278152602001806132496027913960400191505060405180910390fd5b600460008373ffffffffffffffffffffffffffffffffffffffff1673ffffffffffffffffffffffffffffffffffffffff1681526020019081526020016000208054600181600116156101000203166002900480601f0160208091040260200160405190810160405280929190818152602001828054600181600116156101000203166002900480156121cb5780601f106121a0576101008083540402835291602001916121cb565b820191906000526020600020905b8154815290600101906020018083116121ae57829003601f168201915b50505050509050919050565b60011515600b60003373ffffffffffffffffffffffffffffffffffffffff1673ffffffffffffffffffffffffffffffffffffffff16815260200190815260200160002060009054906101000a900460ff16151514612280576040517f08c379a000000000000000000000000000000000000000000000000000000000815260040180806020018281038252603681526020018061314c6036913960400191505060405180910390fd5b60011515600c60008773ffffffffffffffffffffffffffffffffffffffff1673ffffffffffffffffffffffffffffffffffffffff16815260200190815260200160002060009054906101000a900460ff16151514612329576040517f08c379a00000000000000000000000000000000000000000000000000000000081526004018080602001828103825260548152602001806131f56054913960600191505060405180910390fd5b60011515600d846040518082805190602001908083835b602083106123635780518252602082019150602081019050602083039250612340565b6001836020036101000a038019825116818451168082178552505050505050905001915050908152602001604051809103902060009054906101000a900460ff16151514156123fd576040517f08c379a00000000000000000000000000000000000000000000000000000000081526004018080602001828103825260408152602001806131826040913960400191505060405180910390fd5b612405612f01565b8381602001819052504281604001818152505033816060019073ffffffffffffffffffffffffffffffffffffffff16908173ffffffffffffffffffffffffffffffffffffffff168152505085816080019073ffffffffffffffffffffffffffffffffffffffff16908173ffffffffffffffffffffffffffffffffffffffff1681525050818160a00181905250848160000181905250828160c001818152505060006013549050601360008154809291906001019190505550856007600083815260200190815260200160002090805190602001906124e4929190612e81565b5081600660008381526020019081526020016000206000820151816000019080519060200190612515929190612f6a565b506020820151816001019080519060200190612532929190612f6a565b506040820151816002015560608201518160030160006101000a81548173ffffffffffffffffffffffffffffffffffffffff021916908373ffffffffffffffffffffffffffffffffffffffff16021790555060808201518160040160006101000a81548173ffffffffffffffffffffffffffffffffffffffff021916908373ffffffffffffffffffffffffffffffffffffffff16021790555060a08201518160050190805190602001906125e7929190612f6a565b5060c08201518160060155905050600860008873ffffffffffffffffffffffffffffffffffffffff1673ffffffffffffffffffffffffffffffffffffffff168152602001908152602001600020819080600181540180825580915050906001820390600052602060002001600090919290919091505550600960003373ffffffffffffffffffffffffffffffffffffffff1673ffffffffffffffffffffffffffffffffffffffff1681526020019081526020016000208190806001815401808255809150509060018203906000526020600020016000909192909190915055506001600d866040518082805190602001908083835b602083106126ff57805182526020820191506020810190506020830392506126dc565b6001836020036101000a038019825116818451168082178552505050505050905001915050908152602001604051809103902060006101000a81548160ff02191690831515021790555033600e866040518082805190602001908083835b60208310612780578051825260208201915060208101905060208303925061275d565b6001836020036101000a038019825116818451168082178552505050505050905001915050908152602001604051809103902060006101000a81548173ffffffffffffffffffffffffffffffffffffffff021916908373ffffffffffffffffffffffffffffffffffffffff16021790555086600f866040518082805190602001908083835b602083106128285780518252602082019150602081019050602083039250612805565b6001836020036101000a038019825116818451168082178552505050505050905001915050908152602001604051809103902060006101000a81548173ffffffffffffffffffffffffffffffffffffffff021916908373ffffffffffffffffffffffffffffffffffffffff160217905550826010866040518082805190602001908083835b602083106128d057805182526020820191506020810190506020830392506128ad565b6001836020036101000a03801982511681845116808217855250505050505090500191505090815260200160405180910390209080519060200190612916929190612e81565b50836011866040518082805190602001908083835b6020831061294e578051825260208201915060208101905060208303925061292b565b6001836020036101000a038019825116818451168082178552505050505050905001915050908152602001604051809103902081905550806012866040518082805190602001908083835b602083106129bc5780518252602082019150602081019050602083039250612999565b6001836020036101000a03801982511681845116808217855250505050505090500191505090815260200160405180910390208190555050505050505050565b60011515600a60003373ffffffffffffffffffffffffffffffffffffffff1673ffffffffffffffffffffffffffffffffffffffff16815260200190815260200160002060009054906101000a900460ff16151514612aa5576040517f08c379a00000000000000000000000000000000000000000000000000000000081526004018080602001828103825260338152602001806131c26033913960400191505060405180910390fd5b816001826040518082805190602001908083835b60208310612adc5780518252602082019150602081019050602083039250612ab9565b6001836020036101000a038019825116818451168082178552505050505050905001915050908152602001604051809103902060006101000a81548173ffffffffffffffffffffffffffffffffffffffff021916908373ffffffffffffffffffffffffffffffffffffffff1602179055506001600b60008473ffffffffffffffffffffffffffffffffffffffff1673ffffffffffffffffffffffffffffffffffffffff16815260200190815260200160002060006101000a81548160ff02191690831515021790555080600360008473ffffffffffffffffffffffffffffffffffffffff1673ffffffffffffffffffffffffffffffffffffffff1681526020019081526020016000209080519060200190612bf8929190612e81565b505050565b600060011515600d836040518082805190602001908083835b60208310612c395780518252602082019150602081019050602083039250612c16565b6001836020036101000a038019825116818451168082178552505050505050905001915050908152602001604051809103902060009054906101000a900460ff16151514612cd2576040517f08c379a000000000000000000000000000000000000000000000000000000000815260040180806020018281038252602e81526020018061304f602e913960400191505060405180910390fd5b6011826040518082805190602001908083835b60208310612d085780518252602082019150602081019050602083039250612ce5565b6001836020036101000a0380198251168184511680821785525050505050509050019150509081526020016040518091039020549050919050565b606060011515600c60003373ffffffffffffffffffffffffffffffffffffffff1673ffffffffffffffffffffffffffffffffffffffff16815260200190815260200160002060009054906101000a900460ff16151514612dee576040517f08c379a00000000000000000000000000000000000000000000000000000000081526004018080602001828103825260338152602001806130be6033913960400191505060405180910390fd5b600860003373ffffffffffffffffffffffffffffffffffffffff1673ffffffffffffffffffffffffffffffffffffffff168152602001908152602001600020805480602002602001604051908101604052809291908181526020018280548015612e7757602002820191906000526020600020905b815481526020019060010190808311612e63575b5050505050905090565b828054600181600116156101000203166002900490600052602060002090601f016020900481019282601f10612ec257805160ff1916838001178555612ef0565b82800160010185558215612ef0579182015b82811115612eef578251825591602001919060010190612ed4565b5b509050612efd9190612fea565b5090565b6040518060e00160405280606081526020016060815260200160008152602001600073ffffffffffffffffffffffffffffffffffffffff168152602001600073ffffffffffffffffffffffffffffffffffffffff16815260200160608152602001600081525090565b828054600181600116156101000203166002900490600052602060002090601f016020900481019282601f10612fab57805160ff1916838001178555612fd9565b82800160010185558215612fd9579182015b82811115612fd8578251825591602001919060010190612fbd565b5b509050612fe69190612fea565b5090565b61300c91905b80821115613008576000816000905550600101612ff0565b5090565b9056fe596f7520617265206e6f742070617274206f6620617574686f72697479206f722069737375657220746f20726567697374657220612072656365697665722e4365727469666963617465206973206e6f742070617274206f662074686520626c6f636b636861696e207965742e596f7520617265206e6f742070617274206f6620617574686f7269747920746f2072656769737465722061206e65772049737375657220417574686f726974792e596f75206d757374206265206120726563657069656e7420746f2061636365737320796f757220636572746966696361746573596f75206d75737420626520612069737375657220746f2061636365737320796f7572206973737565642063657274696669636174657341646472657373206973206e6f742072656769737465726564206173206973737565722e596f7520617265206e6f742070617274206f662069737365727320746f206372656174652061206e657720636572746966696374652e436572746966696361746520776974682073616d6520686173682076616c756520697320616c7265647920616464656420696e20746865206e6574776f726b2e596f7520617265206e6f742070617274206f6620617574686f7269747920746f2072656769737465722061206973737565722e526563697069656e74206973206e6f7420617474656420746f20726563697069656e74206c697374207965742e20506c6561736520616464206265666f72652069737375696e672063657274696669636174652e41646472657373206973206e6f74207265676973746572656420617320726563657069656e742ea265627a7a723158205e4feb713aea87447a9e6db8ed3d1f9af2186e10393b8b580bbb4f3251e7c2f964736f6c63430005100032",
  "source": "pragma solidity ^0.5.0;\r\n\r\ncontract CertiBlocks {\r\n    struct Certificate {\r\n        string ipfsHash;\r\n        string sha256Hash;\r\n        uint256 issueDate;\r\n        address certificateIssuer;\r\n        address recipient;\r\n        string notes;\r\n        uint256 expiryDate;\r\n    }\r\n    mapping(string => address) issuerAuthorityDetails;\r\n    mapping(string => address) issuerDetails;\r\n    mapping(string => address) recipientDetails;\r\n    mapping(address => string) issuersList;\r\n    mapping(address => string) recipientList;\r\n    mapping(address => string) issuerAuthorityList;\r\n    mapping(uint => Certificate) certificatesList;\r\n    mapping(uint => string) certificatesIpfsHash;\r\n    mapping(address => uint[]) recipientCertificateIDs;\r\n    mapping(address => uint[]) issuerCertificateIDs;\r\n    mapping(address => bool) isIssuingAuthority;\r\n    mapping(address => bool) isCertificateIssuer;\r\n    mapping(address => bool) isRecipient;\r\n    mapping(string => bool) isValidCertificate;\r\n    mapping(string => address) certificateAndIssuerMapper;\r\n    mapping(string => address) certificateAndRecipientMapper;\r\n    mapping(string => string) certificateAndNotesMapper;\r\n    mapping(string => uint256) certificateExpiryMapper;\r\n    mapping(string => uint) certificateIDMapper;\r\n\r\n\r\n\r\n    uint currentIndex;\r\n    constructor() public {\r\n        issuerAuthorityDetails[\"initial\"] = msg.sender;\r\n        isIssuingAuthority[msg.sender] = true;\r\n        issuerAuthorityList[msg.sender] = \"initial\";\r\n        currentIndex = 1;\r\n    }\r\n\r\n    function AddNewIssuerAuthority(address addressOfAuthority,string memory details) public{\r\n        require((isIssuingAuthority[msg.sender] == true), \"You are not part of authority to register a new Issuer Authority.\");\r\n        issuerAuthorityDetails[details] = addressOfAuthority;\r\n        isIssuingAuthority[addressOfAuthority] = true;\r\n        issuerAuthorityList[addressOfAuthority] = details;\r\n    }\r\n\r\n    function AddNewCertificateIssuer(address addressOfIssuer,string memory details) public{\r\n        require((isIssuingAuthority[msg.sender] == true), \"You are not part of authority to register a issuer.\");\r\n        issuerDetails[details] = addressOfIssuer;\r\n        isCertificateIssuer[addressOfIssuer] = true;\r\n        issuersList[addressOfIssuer] = details;\r\n    }\r\n\r\n    function AddNewReceiver(address addressOfRecepient,string memory details) public{\r\n        require((isIssuingAuthority[msg.sender] == true || isCertificateIssuer[msg.sender] == true), \"You are not part of authority or issuer to register a receiver.\");\r\n        recipientDetails[details] = addressOfRecepient;\r\n        isRecipient[addressOfRecepient] = true;\r\n        recipientList[addressOfRecepient] = details;\r\n    }\r\n   \r\n    function AddNewCertificate(address _recipient,string memory _ipfsHash ,string memory _sha256Value, uint256 _expiryDate, string memory _notes ) public {\r\n        require((isCertificateIssuer[msg.sender] == true), \"You are not part of issers to create a new certificte.\");\r\n        require((isRecipient[_recipient] == true), \"Recipient is not atted to recipient list yet. Please add before issuing certificate.\");\r\n        require((isValidCertificate[_sha256Value] != true), \"Certificate with same hash value is alredy added in the network.\");\r\n        Certificate memory certificate;\r\n        certificate.sha256Hash = _sha256Value;\r\n        certificate.issueDate = now;\r\n        certificate.certificateIssuer = msg.sender;\r\n        certificate.recipient = _recipient;\r\n        certificate.notes = _notes;\r\n        certificate.ipfsHash = _ipfsHash;\r\n        certificate.expiryDate = _expiryDate;\r\n        uint tempId = currentIndex;\r\n        currentIndex++;\r\n        certificatesIpfsHash[tempId] = _ipfsHash; \r\n        certificatesList[tempId] = certificate;\r\n        recipientCertificateIDs[_recipient].push(tempId);\r\n        issuerCertificateIDs[msg.sender].push(tempId);\r\n        isValidCertificate[_sha256Value] = true;\r\n        certificateAndIssuerMapper[_sha256Value] = msg.sender;\r\n        certificateAndRecipientMapper[_sha256Value] = _recipient;\r\n        certificateAndNotesMapper[_sha256Value] = _notes;\r\n        certificateExpiryMapper[_sha256Value] = _expiryDate;\r\n        certificateIDMapper[_sha256Value] = tempId;\r\n    }\r\n\r\n    function getRecipientDetails(string memory _sha256Value) public view returns (address){\r\n        require((isValidCertificate[_sha256Value] == true), \"Certificate is not part of the blockchain yet.\");\r\n        return certificateAndRecipientMapper[_sha256Value];\r\n    }\r\n    \r\n    function getIssuerDetails(string memory _sha256Value) public  view returns (address){\r\n        require((isValidCertificate[_sha256Value] == true), \"Certificate is not part of the blockchain yet.\");\r\n        return certificateAndIssuerMapper[_sha256Value];\r\n    }\r\n\r\n    function getNotes(string memory _sha256Value) public  view returns (string memory){\r\n        require((isValidCertificate[_sha256Value] == true), \"Certificate is not part of the blockchain yet.\");\r\n        return certificateAndNotesMapper[_sha256Value];\r\n    }\r\n    \r\n    function getExpiry(string memory _sha256Value) public view returns (uint256){\r\n        require((isValidCertificate[_sha256Value] == true), \"Certificate is not part of the blockchain yet.\");\r\n        return certificateExpiryMapper[_sha256Value];\r\n    }\r\n\r\n    function getID(string memory _sha256Value) public view returns (uint){\r\n        require((isValidCertificate[_sha256Value] == true), \"Certificate is not part of the blockchain yet.\");\r\n        return certificateIDMapper[_sha256Value];\r\n    }\r\n\r\n    function getReceivedCertificates() public view returns (uint[] memory) {\r\n        require((isRecipient[msg.sender] == true), \"You must be a recepient to access your certificates\");\r\n        return recipientCertificateIDs[msg.sender];\r\n    }\r\n\r\n    function getIssuedCertificates() public view returns (uint[] memory) {\r\n        require((isCertificateIssuer[msg.sender] == true), \"You must be a issuer to access your issued certificates\");\r\n        return issuerCertificateIDs[msg.sender];\r\n    }\r\n\r\n    function getIssuerDetails(address _issuer) public view returns (string memory){\r\n        require((isCertificateIssuer[_issuer] == true), \"Address is not registered as issuer.\");\r\n        return issuersList[_issuer];\r\n    }\r\n    function getRecipientDetails(address _recipient) public view returns (string memory){\r\n        require((isRecipient[_recipient] == true), \"Address is not registered as recepient.\");\r\n        return recipientList[_recipient];\r\n    }\r\n\r\n    function getCertificateById(uint _id) public view returns (string memory, uint, address, address,string memory){\r\n        require((currentIndex>_id), \"Certificate is not part of the blockchain yet.\");\r\n        Certificate memory certificate = certificatesList[_id];\r\n        return (certificate.sha256Hash, certificate.expiryDate, certificate.certificateIssuer, certificate.recipient,certificate.notes);\r\n    }\r\n\r\n    function getCertificateIPFSHashById(uint _id) public view returns (string memory){\r\n        require((currentIndex>_id), \"Certificate is not part of the blockchain yet.\");\r\n        return certificatesIpfsHash[_id];\r\n    }\r\n}\r\n",
  "sourcePath": "G:\\Masters\\Blockchain\\CertiBlocks\\CertiBlocks\\contracts\\CertiBlocks.sol",
  "compiler": {
    "name": "solc",
    "version": "0.5.16+commit.9c3226ce.Emscripten.clang"
  },
  "schemaVersion": "3.0.23",
  "updatedAt": "2020-02-28T20:16:01.138Z",
  "devdoc": {
    "methods": {}
  },
  "userdoc": {
    "methods": {}
  }
}