{
  "contractName": "MerkleProof",
  "abi": [
    {
      "constant": true,
      "inputs": [
        {
          "internalType": "bytes32[]",
          "name": "proof",
          "type": "bytes32[]"
        },
        {
          "internalType": "bytes32",
          "name": "root",
          "type": "bytes32"
        },
        {
          "internalType": "bytes32",
          "name": "leaf",
          "type": "bytes32"
        },
        {
          "internalType": "uint256",
          "name": "index",
          "type": "uint256"
        }
      ],
      "name": "verify",
      "outputs": [
        {
          "internalType": "bool",
          "name": "",
          "type": "bool"
        }
      ],
      "payable": false,
      "stateMutability": "pure",
      "type": "function"
    }
  ],
  "bytecode": "0x608060405234801561001057600080fd5b50610225806100206000396000f3fe608060405234801561001057600080fd5b506004361061002b5760003560e01c806321fb335c14610030575b600080fd5b6101046004803603608081101561004657600080fd5b810190808035906020019064010000000081111561006357600080fd5b82018360208201111561007557600080fd5b8035906020019184602083028401116401000000008311171561009757600080fd5b919080806020026020016040519081016040528093929190818152602001838360200280828437600081840152601f19601f82011690508083019250505050505050919291929080359060200190929190803590602001909291908035906020019092919050505061011e565b604051808215151515815260200191505060405180910390f35b60008083905060008090505b86518110156101e157600087828151811061014157fe5b6020026020010151905060006002868161015757fe5b06141561019457828160405160200180838152602001828152602001925050506040516020818303038152906040528051906020012092506101c6565b808360405160200180838152602001828152602001925050506040516020818303038152906040528051906020012092505b600285816101d057fe5b04945050808060010191505061012a565b5084811491505094935050505056fea265627a7a72315820babf51dddfbb29c64ebd9f578da40856f7e65490cd44ef1bd600148c9c66177264736f6c63430005100032",
  "source": "pragma solidity ^0.5.0;\r\n\r\ncontract MerkleProof {\r\n    function verify(\r\n        bytes32[] memory proof, bytes32 root, bytes32 leaf, uint index\r\n    )\r\n        public pure returns (bool)\r\n    {\r\n        bytes32 hash = leaf;\r\n\r\n        for (uint i = 0; i < proof.length; i++) {\r\n            bytes32 proofElement = proof[i];\r\n\r\n            if (index % 2 == 0) {\r\n                hash = keccak256(abi.encodePacked(hash, proofElement));\r\n            } else {\r\n                hash = keccak256(abi.encodePacked(proofElement, hash));\r\n            }\r\n\r\n            index = index / 2;\r\n        }\r\n\r\n        return hash == root;\r\n    }\r\n}\r\n\r\ncontract CertiBlocks {\r\n    bytes32[] public hashes;\r\n    // Stucture to store the certificate in the blockchain.\r\n    struct Certificate {\r\n        string ipfsHash;\r\n        string sha256Hash;\r\n        uint256 issueDate;\r\n        address certificateIssuer;\r\n        address recipient;\r\n        string notes;\r\n        uint256 expiryDate;\r\n    }\r\n    // Mappings are dynamically changing values in the blockchain. \r\n    mapping(string => address) issuerAuthorityDetails;\r\n    mapping(string => address) issuerDetails;\r\n    mapping(string => address) recipientDetails;\r\n    mapping(address => string) issuersList;\r\n    mapping(address => string) recipientList;\r\n    mapping(address => string) issuerAuthorityList;\r\n    mapping(uint => Certificate) certificatesList;\r\n    mapping(uint => string) certificatesIpfsHash;\r\n    mapping(address => uint[]) recipientCertificateIDs;\r\n    mapping(address => uint[]) issuerCertificateIDs;\r\n    mapping(address => bool) isIssuingAuthority;\r\n    mapping(address => bool) isCertificateIssuer;\r\n    mapping(address => bool) isRecipient;\r\n    mapping(string => bool) isValidCertificate;\r\n    mapping(string => address) certificateAndIssuerMapper;\r\n    mapping(string => address) certificateAndRecipientMapper;\r\n    mapping(string => string) certificateAndNotesMapper;\r\n    mapping(string => uint256) certificateExpiryMapper;\r\n    mapping(string => uint) certificateIDMapper;\r\n\r\n    // Events for storing in the transaction log.\r\n    event RegisteredNewAuthority(address indexed authority, string details);\r\n    event RegisteredNewIssuer(address indexed issuer, string details);\r\n    event RegisteredNewRecipient(address indexed recipient, string details);\r\n    event IssuedNewCertificate(uint indexed certificate, address indexed issuer, address indexed recipient);\r\n\r\n    // Used to track the index for next block that will be added to the blockchain.\r\n    uint currentIndex;\r\n\r\n    constructor() public {\r\n        issuerAuthorityDetails[\"initial\"] = msg.sender;\r\n        isIssuingAuthority[msg.sender] = true;\r\n        issuerAuthorityList[msg.sender] = \"initial\";\r\n        currentIndex = 1;\r\n    }\r\n\r\n    function CalculateMerkle() public{\r\n        for (uint i = 1; i < currentIndex; i++) {\r\n            hashes.push(keccak256(abi.encodePacked(certificatesIpfsHash[i])));\r\n        }\r\n\r\n        uint n = currentIndex;\r\n        uint offset = 0;\r\n\r\n        while (n > 0) {\r\n            for (uint i = 0; i < n - 1; i+=2) {\r\n                hashes.push(\r\n                    keccak256(abi.encodePacked(\r\n                        hashes[offset + i],\r\n                        hashes[offset + i + 1]\r\n                    ))\r\n                );\r\n            }\r\n            offset += n;\r\n            n = n / 2;\r\n        }\r\n    }\r\n\r\n    function getRoot() public view returns (bytes32) {\r\n        return hashes[hashes.length - 1];\r\n    }\r\n\r\n    // Adds new authority. On successfull addition of authority RegisteredNewAuthority event is emitted.\r\n    function AddNewIssuerAuthority(address addressOfAuthority,string memory details) public{\r\n        require((isIssuingAuthority[msg.sender] == true), \"You are not part of authority to register a new Issuer Authority.\");\r\n        issuerAuthorityDetails[details] = addressOfAuthority;\r\n        isIssuingAuthority[addressOfAuthority] = true;\r\n        issuerAuthorityList[addressOfAuthority] = details;\r\n        emit RegisteredNewAuthority(addressOfAuthority, details);\r\n    }\r\n\r\n    // Adds new issuer. On successfull addition of issuer RegisteredNewIssuer event is emitted.\r\n    function AddNewCertificateIssuer(address addressOfIssuer,string memory details) public{\r\n        require((isIssuingAuthority[msg.sender] == true), \"You are not part of authority to register a issuer.\");\r\n        issuerDetails[details] = addressOfIssuer;\r\n        isCertificateIssuer[addressOfIssuer] = true;\r\n        issuersList[addressOfIssuer] = details;\r\n        emit RegisteredNewIssuer(addressOfIssuer, details);\r\n    }\r\n\r\n    // Adds new receiver. On successfull addition of receiver RegisteredNewRecipient event is emitted.\r\n    function AddNewReceiver(address addressOfRecepient,string memory details) public{\r\n        require((isIssuingAuthority[msg.sender] == true || isCertificateIssuer[msg.sender] == true), \"You are not part of authority or issuer to register a receiver.\");\r\n        recipientDetails[details] = addressOfRecepient;\r\n        isRecipient[addressOfRecepient] = true;\r\n        recipientList[addressOfRecepient] = details;\r\n        emit RegisteredNewRecipient(addressOfRecepient, details);\r\n    }\r\n   \r\n   // Adds new certificate. On successfull addition of certificate IssuedNewCertificate event is emitted.\r\n    function AddNewCertificate(address _recipient,string memory _ipfsHash ,string memory _sha256Value, uint256 _expiryDate, string memory _notes ) public {\r\n        require((isCertificateIssuer[msg.sender] == true), \"You are not part of issers to create a new certificate.\");\r\n        require((isRecipient[_recipient] == true), \"Recipient is not atted to recipient list yet. Please add before issuing certificate.\");\r\n        require((isValidCertificate[_sha256Value] != true), \"Certificate with same hash value is alredy added in the network.\");\r\n        Certificate memory certificate;\r\n        certificate.sha256Hash = _sha256Value;\r\n        certificate.issueDate = now;\r\n        certificate.certificateIssuer = msg.sender;\r\n        certificate.recipient = _recipient;\r\n        certificate.notes = _notes;\r\n        certificate.ipfsHash = _ipfsHash;\r\n        certificate.expiryDate = _expiryDate;\r\n        uint tempId = currentIndex;\r\n        currentIndex++;\r\n        certificatesIpfsHash[tempId] = _ipfsHash; \r\n        certificatesList[tempId] = certificate;\r\n        recipientCertificateIDs[_recipient].push(tempId);\r\n        issuerCertificateIDs[msg.sender].push(tempId);\r\n        isValidCertificate[_sha256Value] = true;\r\n        certificateAndIssuerMapper[_sha256Value] = msg.sender;\r\n        certificateAndRecipientMapper[_sha256Value] = _recipient;\r\n        certificateAndNotesMapper[_sha256Value] = _notes;\r\n        certificateExpiryMapper[_sha256Value] = _expiryDate;\r\n        certificateIDMapper[_sha256Value] = tempId;\r\n        emit IssuedNewCertificate(tempId, msg.sender, _recipient);\r\n    }\r\n\r\n    // Gets the details of receiver of the certificate. \r\n    function getRecipientDetails(string memory _sha256Value) public view returns (address){\r\n        require((isValidCertificate[_sha256Value] == true), \"Certificate is not part of the blockchain yet.\");\r\n        return certificateAndRecipientMapper[_sha256Value];\r\n    }\r\n    \r\n    // Gets the details of issuer of the certificate. \r\n    function getIssuerDetails(string memory _sha256Value) public  view returns (address){\r\n        require((isValidCertificate[_sha256Value] == true), \"Certificate is not part of the blockchain yet.\");\r\n        return certificateAndIssuerMapper[_sha256Value];\r\n    }\r\n\r\n    // Gets the notes of the certificate. \r\n    function getNotes(string memory _sha256Value) public  view returns (string memory){\r\n        require((isValidCertificate[_sha256Value] == true), \"Certificate is not part of the blockchain yet.\");\r\n        return certificateAndNotesMapper[_sha256Value];\r\n    }\r\n    \r\n    // Gets the notes of the certificate. \r\n    function getExpiry(string memory _sha256Value) public view returns (uint256){\r\n        require((isValidCertificate[_sha256Value] == true), \"Certificate is not part of the blockchain yet.\");\r\n        return certificateExpiryMapper[_sha256Value];\r\n    }\r\n\r\n    function getID(string memory _sha256Value) public view returns (uint){\r\n        require((isValidCertificate[_sha256Value] == true), \"Certificate is not part of the blockchain yet.\");\r\n        return certificateIDMapper[_sha256Value];\r\n    }\r\n\r\n    function getReceivedCertificates() public view returns (uint[] memory) {\r\n        require((isRecipient[msg.sender] == true), \"You must be a recepient to access your certificates\");\r\n        return recipientCertificateIDs[msg.sender];\r\n    }\r\n\r\n    function getIssuedCertificates() public view returns (uint[] memory) {\r\n        require((isCertificateIssuer[msg.sender] == true), \"You must be a issuer to access your issued certificates\");\r\n        return issuerCertificateIDs[msg.sender];\r\n    }\r\n\r\n    function getIssuerNodeDetails(address _issuer) public view returns (string memory){\r\n        require((isCertificateIssuer[_issuer] == true), \"Address is not registered as issuer.\");\r\n        return issuersList[_issuer];\r\n    }\r\n    function getRecipientNodeDetails(address _recipient) public view returns (string memory){\r\n        require((isRecipient[_recipient] == true), \"Address is not registered as recepient.\");\r\n        return recipientList[_recipient];\r\n    }\r\n\r\n    function getCertificateById(uint _id) public view returns (string memory, uint, address, address,string memory){\r\n        require((currentIndex>_id), \"Certificate is not part of the blockchain yet.\");\r\n        Certificate memory certificate = certificatesList[_id];\r\n        return (certificate.sha256Hash, certificate.expiryDate, certificate.certificateIssuer, certificate.recipient,certificate.notes);\r\n    }\r\n\r\n    function getCertificateIPFSHashById(uint _id) public view returns (string memory){\r\n        require((currentIndex>_id), \"Certificate is not part of the blockchain yet.\");\r\n        return certificatesIpfsHash[_id];\r\n    }\r\n}\r\n",
  "sourcePath": "G:\\Masters\\Blockchain\\CertiBlocks\\CertiBlocks\\contracts\\CertiBlocks.sol",
  "compiler": {
    "name": "solc",
    "version": "0.5.16+commit.9c3226ce.Emscripten.clang"
  },
  "schemaVersion": "3.1.0",
  "updatedAt": "2020-04-22T18:35:28.069Z",
  "devdoc": {
    "methods": {}
  },
  "userdoc": {
    "methods": {}
  }
}